:1000000000308A0095280000FF00030E8301A10044
:100010007F08A0000A08A7008A01A00E0408A20019
:100020007708A3007808A4007908A5007A08A6003C
:10003000831383128C308400001C20280C18312874
:10004000220884002308F7002408F8002508F90096
:100050002608FA0027088A00210E8300FF0E7F0E73
:1000600009008E01EC308F0078308E002908013CA9
:10007000031C4328031D40282808F33C031C432885
:10008000A80A0319A90A0C108A1120283E308400FE
:100090008313000803195A280130F800F701F70B01
:1000A0004F28F80B4E284A30F700F70B55285828F0
:1000B000800B4C280800F701F8013D0803103E189A
:1000C000F707F70CF80CBE18F707F70CF80C3E19F9
:1000D000F707F70CF80CBE19F707F70CF80C3E1AE7
:1000E000F707F70CF80CBE1AF707F70CF80C3E1BD5
:1000F000F707F70CF80CBE1BF707F70CF80C080015
:100100004008F8013F02031888283F08F7009428A8
:10011000F7010830C100BF0DF70D40087702031842
:10012000F700F80DC10B8B28080003081F39830066
:10013000A901A80107309F008313AC01AD01AE01F6
:10014000AF01B00134308316850080308600831201
:100150008501860183160C14C03083128B0485013F
:100160008601051E6129AA01AB010C30BD00FA30E1
:10017000BE004620BD0BB72806178515B530900088
:100180008E01EC308F0078308E002908013C031C72
:10019000E128031DCF282808F33C031CE128051D96
:1001A000DC28DE30BE0046200514051785178514AF
:1001B0004D30BE004620AA0A851005100513851390
:1001C000C5289001A901A80185112A08BD000330A6
:1001D000BE005B207808AB002B08BF000A30C000CF
:1001E00080207708AE002E082B02BE00BF000A3028
:1001F000C00080207808AF002F08BF000A30C00080
:1002000080207708AD002D08BD000A30BE005B20BD
:100210002E0878072B02BE00BF006430C00080208B
:100220007808B0003008BF000A30C000802077088E
:10023000AC003F30B1000330B2006D30B300673026
:10024000B4005330B5007630B6007E30B7002330AE
:10025000B8007F30B9007730BA00BC01BB013C0860
:10026000273C031C6129031D39293B080F3C031C53
:10027000612931302E07840083130008BD008600F9
:1002800005170330BE004620051331302D078400CA
:1002900083130008BD00860085170330BE0046208A
:1002A000851331302C07840083130008BD008600BD
:1002B00005140330BE0046200510BB0A0319BC0A12
:0602C0002F29AF286300A6
:02400E00783FF9
:00000001FF
;PIC16F628A
;CRC=FD28  CREATED="10-Tem-18 05:49"
